{
  "contractName": "Members",
  "abi": [
    {
      "inputs": [],
      "stateMutability": "nonpayable",
      "type": "constructor"
    },
    {
      "anonymous": false,
      "inputs": [
        {
          "components": [
            {
              "internalType": "string",
              "name": "nodeName",
              "type": "string"
            },
            {
              "internalType": "address",
              "name": "memberAddress",
              "type": "address"
            },
            {
              "internalType": "string",
              "name": "entityName",
              "type": "string"
            },
            {
              "internalType": "string",
              "name": "privacyAddress",
              "type": "string"
            },
            {
              "internalType": "string",
              "name": "memberType",
              "type": "string"
            },
            {
              "internalType": "string",
              "name": "memberStatus",
              "type": "string"
            }
          ],
          "indexed": false,
          "internalType": "struct Common.Member",
          "name": "member",
          "type": "tuple"
        }
      ],
      "name": "memberAdded",
      "type": "event"
    },
    {
      "inputs": [
        {
          "internalType": "address",
          "name": "",
          "type": "address"
        }
      ],
      "name": "members",
      "outputs": [
        {
          "internalType": "string",
          "name": "nodeName",
          "type": "string"
        },
        {
          "internalType": "address",
          "name": "memberAddress",
          "type": "address"
        },
        {
          "internalType": "string",
          "name": "entityName",
          "type": "string"
        },
        {
          "internalType": "string",
          "name": "privacyAddress",
          "type": "string"
        },
        {
          "internalType": "string",
          "name": "memberType",
          "type": "string"
        },
        {
          "internalType": "string",
          "name": "memberStatus",
          "type": "string"
        }
      ],
      "stateMutability": "view",
      "type": "function"
    },
    {
      "inputs": [
        {
          "components": [
            {
              "internalType": "string",
              "name": "nodeName",
              "type": "string"
            },
            {
              "internalType": "address",
              "name": "memberAddress",
              "type": "address"
            },
            {
              "internalType": "string",
              "name": "entityName",
              "type": "string"
            },
            {
              "internalType": "string",
              "name": "privacyAddress",
              "type": "string"
            },
            {
              "internalType": "string",
              "name": "memberType",
              "type": "string"
            },
            {
              "internalType": "string",
              "name": "memberStatus",
              "type": "string"
            }
          ],
          "internalType": "struct Common.Member",
          "name": "_member",
          "type": "tuple"
        }
      ],
      "name": "addMember",
      "outputs": [
        {
          "components": [
            {
              "internalType": "string",
              "name": "nodeName",
              "type": "string"
            },
            {
              "internalType": "address",
              "name": "memberAddress",
              "type": "address"
            },
            {
              "internalType": "string",
              "name": "entityName",
              "type": "string"
            },
            {
              "internalType": "string",
              "name": "privacyAddress",
              "type": "string"
            },
            {
              "internalType": "string",
              "name": "memberType",
              "type": "string"
            },
            {
              "internalType": "string",
              "name": "memberStatus",
              "type": "string"
            }
          ],
          "internalType": "struct Common.Member",
          "name": "",
          "type": "tuple"
        }
      ],
      "stateMutability": "nonpayable",
      "type": "function"
    },
    {
      "inputs": [],
      "name": "getMembers",
      "outputs": [
        {
          "components": [
            {
              "internalType": "string",
              "name": "nodeName",
              "type": "string"
            },
            {
              "internalType": "address",
              "name": "memberAddress",
              "type": "address"
            },
            {
              "internalType": "string",
              "name": "entityName",
              "type": "string"
            },
            {
              "internalType": "string",
              "name": "privacyAddress",
              "type": "string"
            },
            {
              "internalType": "string",
              "name": "memberType",
              "type": "string"
            },
            {
              "internalType": "string",
              "name": "memberStatus",
              "type": "string"
            }
          ],
          "internalType": "struct Common.Member[]",
          "name": "",
          "type": "tuple[]"
        }
      ],
      "stateMutability": "view",
      "type": "function"
    }
  ],
  "bytecode": "0x608060405234801561001057600080fd5b50336000806101000a81548173ffffffffffffffffffffffffffffffffffffffff021916908373ffffffffffffffffffffffffffffffffffffffff160217905550611dcb806100606000396000f3fe608060405234801561001057600080fd5b50600436106100415760003560e01c806308ae4b0c1461004657806352c26ba31461007b5780639eab5253146100ab575b600080fd5b610060600480360381019061005b9190611154565b6100c9565b60405161007296959493929190611220565b60405180910390f35b6100956004803603810190610090919061150f565b6103cd565b6040516100a29190611656565b60405180910390f35b6100b36109e1565b6040516100c091906117df565b60405180910390f35b60016020528060005260406000206000915090508060000180546100ec90611830565b80601f016020809104026020016040519081016040528092919081815260200182805461011890611830565b80156101655780601f1061013a57610100808354040283529160200191610165565b820191906000526020600020905b81548152906001019060200180831161014857829003601f168201915b5050505050908060010160009054906101000a900473ffffffffffffffffffffffffffffffffffffffff16908060020180546101a090611830565b80601f01602080910402602001604051908101604052809291908181526020018280546101cc90611830565b80156102195780601f106101ee57610100808354040283529160200191610219565b820191906000526020600020905b8154815290600101906020018083116101fc57829003601f168201915b50505050509080600301805461022e90611830565b80601f016020809104026020016040519081016040528092919081815260200182805461025a90611830565b80156102a75780601f1061027c576101008083540402835291602001916102a7565b820191906000526020600020905b81548152906001019060200180831161028a57829003601f168201915b5050505050908060040180546102bc90611830565b80601f01602080910402602001604051908101604052809291908181526020018280546102e890611830565b80156103355780601f1061030a57610100808354040283529160200191610335565b820191906000526020600020905b81548152906001019060200180831161031857829003601f168201915b50505050509080600501805461034a90611830565b80601f016020809104026020016040519081016040528092919081815260200182805461037690611830565b80156103c35780601f10610398576101008083540402835291602001916103c3565b820191906000526020600020905b8154815290600101906020018083116103a657829003601f168201915b5050505050905086565b6103d5611096565b60008054906101000a900473ffffffffffffffffffffffffffffffffffffffff1673ffffffffffffffffffffffffffffffffffffffff163373ffffffffffffffffffffffffffffffffffffffff1614610463576040517f08c379a000000000000000000000000000000000000000000000000000000000815260040161045a906118ad565b60405180910390fd5b600115156104748360800151610e4d565b15151461048057600080fd5b8160016000846020015173ffffffffffffffffffffffffffffffffffffffff1673ffffffffffffffffffffffffffffffffffffffff16815260200190815260200160002060008201518160000190816104d99190611a83565b5060208201518160010160006101000a81548173ffffffffffffffffffffffffffffffffffffffff021916908373ffffffffffffffffffffffffffffffffffffffff16021790555060408201518160020190816105369190611a83565b50606082015181600301908161054c9190611a83565b5060808201518160040190816105629190611a83565b5060a08201518160050190816105789190611a83565b50905050600282602001519080600181540180825580915050600190039060005260206000200160009091909190916101000a81548173ffffffffffffffffffffffffffffffffffffffff021916908373ffffffffffffffffffffffffffffffffffffffff1602179055507fd016b41c35d75259d8f5d6654f627ff6401c9c5472ef2f02bc076b9456370eb960016000846020015173ffffffffffffffffffffffffffffffffffffffff1673ffffffffffffffffffffffffffffffffffffffff1681526020019081526020016000206040516106549190611ccd565b60405180910390a160016000836020015173ffffffffffffffffffffffffffffffffffffffff1673ffffffffffffffffffffffffffffffffffffffff1681526020019081526020016000206040518060c00160405290816000820180546106ba90611830565b80601f01602080910402602001604051908101604052809291908181526020018280546106e690611830565b80156107335780601f1061070857610100808354040283529160200191610733565b820191906000526020600020905b81548152906001019060200180831161071657829003601f168201915b505050505081526020016001820160009054906101000a900473ffffffffffffffffffffffffffffffffffffffff1673ffffffffffffffffffffffffffffffffffffffff1673ffffffffffffffffffffffffffffffffffffffff1681526020016002820180546107a290611830565b80601f01602080910402602001604051908101604052809291908181526020018280546107ce90611830565b801561081b5780601f106107f05761010080835404028352916020019161081b565b820191906000526020600020905b8154815290600101906020018083116107fe57829003601f168201915b5050505050815260200160038201805461083490611830565b80601f016020809104026020016040519081016040528092919081815260200182805461086090611830565b80156108ad5780601f10610882576101008083540402835291602001916108ad565b820191906000526020600020905b81548152906001019060200180831161089057829003601f168201915b505050505081526020016004820180546108c690611830565b80601f01602080910402602001604051908101604052809291908181526020018280546108f290611830565b801561093f5780601f106109145761010080835404028352916020019161093f565b820191906000526020600020905b81548152906001019060200180831161092257829003601f168201915b5050505050815260200160058201805461095890611830565b80601f016020809104026020016040519081016040528092919081815260200182805461098490611830565b80156109d15780601f106109a6576101008083540402835291602001916109d1565b820191906000526020600020905b8154815290600101906020018083116109b457829003601f168201915b5050505050815250509050919050565b6060600060028054905067ffffffffffffffff811115610a0457610a036112a9565b5b604051908082528060200260200182016040528015610a3d57816020015b610a2a611096565b815260200190600190039081610a225790505b50905060005b600280549050811015610e4557600060028281548110610a6657610a65611cef565b5b9060005260206000200160009054906101000a900473ffffffffffffffffffffffffffffffffffffffff1690506000600160008373ffffffffffffffffffffffffffffffffffffffff1673ffffffffffffffffffffffffffffffffffffffff1681526020019081526020016000209050806040518060c0016040529081600082018054610af290611830565b80601f0160208091040260200160405190810160405280929190818152602001828054610b1e90611830565b8015610b6b5780601f10610b4057610100808354040283529160200191610b6b565b820191906000526020600020905b815481529060010190602001808311610b4e57829003601f168201915b505050505081526020016001820160009054906101000a900473ffffffffffffffffffffffffffffffffffffffff1673ffffffffffffffffffffffffffffffffffffffff1673ffffffffffffffffffffffffffffffffffffffff168152602001600282018054610bda90611830565b80601f0160208091040260200160405190810160405280929190818152602001828054610c0690611830565b8015610c535780601f10610c2857610100808354040283529160200191610c53565b820191906000526020600020905b815481529060010190602001808311610c3657829003601f168201915b50505050508152602001600382018054610c6c90611830565b80601f0160208091040260200160405190810160405280929190818152602001828054610c9890611830565b8015610ce55780601f10610cba57610100808354040283529160200191610ce5565b820191906000526020600020905b815481529060010190602001808311610cc857829003601f168201915b50505050508152602001600482018054610cfe90611830565b80601f0160208091040260200160405190810160405280929190818152602001828054610d2a90611830565b8015610d775780601f10610d4c57610100808354040283529160200191610d77565b820191906000526020600020905b815481529060010190602001808311610d5a57829003601f168201915b50505050508152602001600582018054610d9090611830565b80601f0160208091040260200160405190810160405280929190818152602001828054610dbc90611830565b8015610e095780601f10610dde57610100808354040283529160200191610e09565b820191906000526020600020905b815481529060010190602001808311610dec57829003601f168201915b505050505081525050848481518110610e2557610e24611cef565b5b602002602001018190525050508080610e3d90611d4d565b915050610a43565b508091505090565b6000808290506000818051906020012090507fc4b7a50abfe71a8c4612c62708a0ddf0b589287d8420e853e67e015fe6e0587b811480610eac57507f1cae03152a528d590744ac34d21368a67821c2377f39304189b1fdf3ecf909cc81145b80610ed657507f5847d8568a1fb6b6b4a6c2223249da21452a2a4204b5da01f4ecaaef847f190281145b80610f0057507f89704005195a63cc3068bc670be5d71c0fc98ab7a6671168acd66cd77f54a11f81145b80610f2a57507fcef02ddcaed469a44fc301d4a0ab563b9ef3ffcf5abacf05f845ce4ba9e1035c81145b80610f5457507f374403609c24429178e7655a69e5048c1d400fdaf7af9aecaa69f0c2ea32769381145b80610f7e57507f7f6f8e38373350522bdc265f23cb3153bf1d4b4f3a64be848cb52af6ee3d48f381145b80610fa857507f2f87fa0e77d26f35749944e54da9ed34a3db93a009e773c1ff35728d18ff703581145b80610fd257507f867e3ea2df6cbfcf43f2a6624818423bf8d8116264a8cb9ad066c8da445c38b081145b80610ffc57507f90035db2db9c36b8d7508a6597c0972e7800802850f13fae29e30d5f8718b9ca81145b8061102657507f7528a2cb148fd42cab43d796a555872ad0ef0c8d8e90e5b373be464d631284c781145b8061105057507fcd775f2396f9f13f12bcf8ca32e21df66559a8adc3944d0591127e7731f7ab8581145b8061107a57507f32f4a45c4ab4135f1cbfea7dfa22df1989a156346650a361d0f3e86154a8712781145b1561108a57600192505050611091565b6000925050505b919050565b6040518060c0016040528060608152602001600073ffffffffffffffffffffffffffffffffffffffff168152602001606081526020016060815260200160608152602001606081525090565b6000604051905090565b600080fd5b600080fd5b600073ffffffffffffffffffffffffffffffffffffffff82169050919050565b6000611121826110f6565b9050919050565b61113181611116565b811461113c57600080fd5b50565b60008135905061114e81611128565b92915050565b60006020828403121561116a576111696110ec565b5b60006111788482850161113f565b91505092915050565b600081519050919050565b600082825260208201905092915050565b60005b838110156111bb5780820151818401526020810190506111a0565b60008484015250505050565b6000601f19601f8301169050919050565b60006111e382611181565b6111ed818561118c565b93506111fd81856020860161119d565b611206816111c7565b840191505092915050565b61121a81611116565b82525050565b600060c082019050818103600083015261123a81896111d8565b90506112496020830188611211565b818103604083015261125b81876111d8565b9050818103606083015261126f81866111d8565b9050818103608083015261128381856111d8565b905081810360a083015261129781846111d8565b9050979650505050505050565b600080fd5b7f4e487b7100000000000000000000000000000000000000000000000000000000600052604160045260246000fd5b6112e1826111c7565b810181811067ffffffffffffffff82111715611300576112ff6112a9565b5b80604052505050565b60006113136110e2565b905061131f82826112d8565b919050565b600080fd5b600080fd5b600080fd5b600067ffffffffffffffff82111561134e5761134d6112a9565b5b611357826111c7565b9050602081019050919050565b82818337600083830152505050565b600061138661138184611333565b611309565b9050828152602081018484840111156113a2576113a161132e565b5b6113ad848285611364565b509392505050565b600082601f8301126113ca576113c9611329565b5b81356113da848260208601611373565b91505092915050565b600060c082840312156113f9576113f86112a4565b5b61140360c0611309565b9050600082013567ffffffffffffffff81111561142357611422611324565b5b61142f848285016113b5565b60008301525060206114438482850161113f565b602083015250604082013567ffffffffffffffff81111561146757611466611324565b5b611473848285016113b5565b604083015250606082013567ffffffffffffffff81111561149757611496611324565b5b6114a3848285016113b5565b606083015250608082013567ffffffffffffffff8111156114c7576114c6611324565b5b6114d3848285016113b5565b60808301525060a082013567ffffffffffffffff8111156114f7576114f6611324565b5b611503848285016113b5565b60a08301525092915050565b600060208284031215611525576115246110ec565b5b600082013567ffffffffffffffff811115611543576115426110f1565b5b61154f848285016113e3565b91505092915050565b600082825260208201905092915050565b600061157482611181565b61157e8185611558565b935061158e81856020860161119d565b611597816111c7565b840191505092915050565b6115ab81611116565b82525050565b600060c08301600083015184820360008601526115ce8282611569565b91505060208301516115e360208601826115a2565b50604083015184820360408601526115fb8282611569565b915050606083015184820360608601526116158282611569565b9150506080830151848203608086015261162f8282611569565b91505060a083015184820360a08601526116498282611569565b9150508091505092915050565b6000602082019050818103600083015261167081846115b1565b905092915050565b600081519050919050565b600082825260208201905092915050565b6000819050602082019050919050565b600060c08301600083015184820360008601526116c18282611569565b91505060208301516116d660208601826115a2565b50604083015184820360408601526116ee8282611569565b915050606083015184820360608601526117088282611569565b915050608083015184820360808601526117228282611569565b91505060a083015184820360a086015261173c8282611569565b9150508091505092915050565b600061175583836116a4565b905092915050565b6000602082019050919050565b600061177582611678565b61177f8185611683565b93508360208202850161179185611694565b8060005b858110156117cd57848403895281516117ae8582611749565b94506117b98361175d565b925060208a01995050600181019050611795565b50829750879550505050505092915050565b600060208201905081810360008301526117f9818461176a565b905092915050565b7f4e487b7100000000000000000000000000000000000000000000000000000000600052602260045260246000fd5b6000600282049050600182168061184857607f821691505b60208210810361185b5761185a611801565b5b50919050565b7f4f6e6c79204e5043492063616e20616464206d656d626572732e000000000000600082015250565b6000611897601a8361118c565b91506118a282611861565b602082019050919050565b600060208201905081810360008301526118c68161188a565b9050919050565b60008190508160005260206000209050919050565b60006020601f8301049050919050565b600082821b905092915050565b60006008830261192f7fffffffffffffffffffffffffffffffffffffffffffffffffffffffffffffffff826118f2565b61193986836118f2565b95508019841693508086168417925050509392505050565b6000819050919050565b6000819050919050565b600061198061197b61197684611951565b61195b565b611951565b9050919050565b6000819050919050565b61199a83611965565b6119ae6119a682611987565b8484546118ff565b825550505050565b600090565b6119c36119b6565b6119ce818484611991565b505050565b5b818110156119f2576119e76000826119bb565b6001810190506119d4565b5050565b601f821115611a3757611a08816118cd565b611a11846118e2565b81016020851015611a20578190505b611a34611a2c856118e2565b8301826119d3565b50505b505050565b600082821c905092915050565b6000611a5a60001984600802611a3c565b1980831691505092915050565b6000611a738383611a49565b9150826002028217905092915050565b611a8c82611181565b67ffffffffffffffff811115611aa557611aa46112a9565b5b611aaf8254611830565b611aba8282856119f6565b600060209050601f831160018114611aed5760008415611adb578287015190505b611ae58582611a67565b865550611b4d565b601f198416611afb866118cd565b60005b82811015611b2357848901518255600182019150602085019450602081019050611afe565b86831015611b405784890151611b3c601f891682611a49565b8355505b6001600288020188555050505b505050505050565b60008154611b6281611830565b611b6c8186611558565b94506001821660008114611b875760018114611b9d57611bd0565b60ff198316865281151560200286019350611bd0565b611ba6856118cd565b60005b83811015611bc857815481890152600182019150602081019050611ba9565b808801955050505b50505092915050565b60008160001c9050919050565b600073ffffffffffffffffffffffffffffffffffffffff82169050919050565b6000611c19611c1483611bd9565b611be6565b9050919050565b600060c0830160008084018583036000870152611c3d8382611b55565b92505060018401549050611c5081611c06565b611c5d60208701826115a2565b50600284018583036040870152611c748382611b55565b925050600384018583036060870152611c8d8382611b55565b925050600484018583036080870152611ca68382611b55565b9250506005840185830360a0870152611cbf8382611b55565b925050819250505092915050565b60006020820190508181036000830152611ce78184611c20565b905092915050565b7f4e487b7100000000000000000000000000000000000000000000000000000000600052603260045260246000fd5b7f4e487b7100000000000000000000000000000000000000000000000000000000600052601160045260246000fd5b6000611d5882611951565b91507fffffffffffffffffffffffffffffffffffffffffffffffffffffffffffffffff8203611d8a57611d89611d1e565b5b60018201905091905056fea2646970667358221220066712f1c1df454caf10dfd656049b8d13b911fcf666332cd1a3dd438db2e24f64736f6c63430008110033",
  "immutableReferences": {},
  "source": "// SPDX-License-Identifier: GPL-3.0\r\npragma solidity >=0.4.0 <0.9.0;\r\nimport '../common/Common.sol';\r\n\r\ncontract Members is Common {\r\n    address owner;\r\n    \r\n   \r\n    \r\n    mapping(address => Member) public members;\r\n    address[] memberAddresses;\r\n\r\n    event memberAdded(Member member);   \r\n\r\n    modifier onlyOwner() { // Modifier\r\n        require(\r\n            msg.sender == owner,\r\n            \"Only NPCI can add members.\"\r\n        );\r\n        _;\r\n    }\r\n\r\n   constructor() public {\r\n      owner = msg.sender;\r\n   }\r\n\r\nfunction addMember(Member memory _member) public onlyOwner returns(Member memory) {   \r\n       \r\n        require(validateMemberType(_member.memberType) == true);            \r\n        members[_member.memberAddress] = _member;        \r\n        memberAddresses.push(_member.memberAddress);\r\n        emit memberAdded(members[_member.memberAddress]);\r\n        return members[_member.memberAddress];\r\n    }\r\n\r\nfunction getMembers() public view returns (Member[] memory){\r\n      Member[] memory allMembers = new Member[](memberAddresses.length);\r\n      for (uint i = 0; i < memberAddresses.length; i++) {\r\n          address ma = memberAddresses[i];  \r\n          Member storage m = members[ma];\r\n          allMembers[i] = m;\r\n      }\r\n      return allMembers;\r\n}\r\n\r\n\r\n}",
  "sourcePath": "C:\\npci-hackathon\\truffle-project\\contracts\\onboarding\\Members.sol",
  "compiler": {
    "name": "solc",
    "version": "0.8.17+commit.8df45f5f.Emscripten.clang"
  },
  "schemaVersion": "3.4.11",
  "updatedAt": "2023-01-05T14:44:57.341Z",
  "devdoc": {
    "kind": "dev",
    "methods": {},
    "version": 1
  },
  "userdoc": {
    "kind": "user",
    "methods": {},
    "version": 1
  }
}