{
  "contractName": "Offers",
  "abi": [
    {
      "inputs": [
        {
          "internalType": "address",
          "name": "_memberContract",
          "type": "address"
        }
      ],
      "stateMutability": "nonpayable",
      "type": "constructor"
    },
    {
      "anonymous": false,
      "inputs": [
        {
          "indexed": false,
          "internalType": "string",
          "name": "message",
          "type": "string"
        },
        {
          "components": [
            {
              "internalType": "address",
              "name": "proposerAddress",
              "type": "address"
            },
            {
              "internalType": "string",
              "name": "offerName",
              "type": "string"
            },
            {
              "internalType": "string",
              "name": "offerId",
              "type": "string"
            },
            {
              "internalType": "string[]",
              "name": "instruments",
              "type": "string[]"
            },
            {
              "internalType": "string[]",
              "name": "features",
              "type": "string[]"
            },
            {
              "internalType": "string[]",
              "name": "termsnconditions",
              "type": "string[]"
            },
            {
              "internalType": "string",
              "name": "offerType",
              "type": "string"
            },
            {
              "internalType": "uint256",
              "name": "startDate",
              "type": "uint256"
            },
            {
              "internalType": "uint256",
              "name": "endDate",
              "type": "uint256"
            },
            {
              "internalType": "string",
              "name": "offerStatus",
              "type": "string"
            },
            {
              "internalType": "uint256",
              "name": "maxOfferCount",
              "type": "uint256"
            },
            {
              "internalType": "string",
              "name": "couponCode",
              "type": "string"
            },
            {
              "internalType": "uint256",
              "name": "maxBenefitAmount",
              "type": "uint256"
            },
            {
              "internalType": "uint256[][]",
              "name": "subventionScheme",
              "type": "uint256[][]"
            },
            {
              "internalType": "string[]",
              "name": "sku",
              "type": "string[]"
            },
            {
              "internalType": "uint256",
              "name": "minOrderValue",
              "type": "uint256"
            },
            {
              "internalType": "uint256",
              "name": "minQtyValue",
              "type": "uint256"
            },
            {
              "internalType": "address[]",
              "name": "acceptedBy",
              "type": "address[]"
            }
          ],
          "indexed": false,
          "internalType": "struct Common.Offer",
          "name": "offer",
          "type": "tuple"
        }
      ],
      "name": "offerAccepted",
      "type": "event"
    },
    {
      "anonymous": false,
      "inputs": [
        {
          "indexed": false,
          "internalType": "string",
          "name": "message",
          "type": "string"
        },
        {
          "components": [
            {
              "internalType": "address",
              "name": "proposerAddress",
              "type": "address"
            },
            {
              "internalType": "string",
              "name": "offerName",
              "type": "string"
            },
            {
              "internalType": "string",
              "name": "offerId",
              "type": "string"
            },
            {
              "internalType": "string[]",
              "name": "instruments",
              "type": "string[]"
            },
            {
              "internalType": "string[]",
              "name": "features",
              "type": "string[]"
            },
            {
              "internalType": "string[]",
              "name": "termsnconditions",
              "type": "string[]"
            },
            {
              "internalType": "string",
              "name": "offerType",
              "type": "string"
            },
            {
              "internalType": "uint256",
              "name": "startDate",
              "type": "uint256"
            },
            {
              "internalType": "uint256",
              "name": "endDate",
              "type": "uint256"
            },
            {
              "internalType": "string",
              "name": "offerStatus",
              "type": "string"
            },
            {
              "internalType": "uint256",
              "name": "maxOfferCount",
              "type": "uint256"
            },
            {
              "internalType": "string",
              "name": "couponCode",
              "type": "string"
            },
            {
              "internalType": "uint256",
              "name": "maxBenefitAmount",
              "type": "uint256"
            },
            {
              "internalType": "uint256[][]",
              "name": "subventionScheme",
              "type": "uint256[][]"
            },
            {
              "internalType": "string[]",
              "name": "sku",
              "type": "string[]"
            },
            {
              "internalType": "uint256",
              "name": "minOrderValue",
              "type": "uint256"
            },
            {
              "internalType": "uint256",
              "name": "minQtyValue",
              "type": "uint256"
            },
            {
              "internalType": "address[]",
              "name": "acceptedBy",
              "type": "address[]"
            }
          ],
          "indexed": false,
          "internalType": "struct Common.Offer",
          "name": "offer",
          "type": "tuple"
        },
        {
          "components": [
            {
              "internalType": "string",
              "name": "memberType",
              "type": "string"
            },
            {
              "internalType": "uint256",
              "name": "percentShare",
              "type": "uint256"
            }
          ],
          "indexed": false,
          "internalType": "struct Offers.SubventionShare[]",
          "name": "subventionScheme",
          "type": "tuple[]"
        }
      ],
      "name": "offerProposed",
      "type": "event"
    },
    {
      "inputs": [
        {
          "internalType": "address",
          "name": "",
          "type": "address"
        },
        {
          "internalType": "uint256",
          "name": "",
          "type": "uint256"
        }
      ],
      "name": "memberOffers",
      "outputs": [
        {
          "internalType": "address",
          "name": "proposerAddress",
          "type": "address"
        },
        {
          "internalType": "string",
          "name": "offerName",
          "type": "string"
        },
        {
          "internalType": "string",
          "name": "offerId",
          "type": "string"
        },
        {
          "internalType": "string",
          "name": "offerType",
          "type": "string"
        },
        {
          "internalType": "uint256",
          "name": "startDate",
          "type": "uint256"
        },
        {
          "internalType": "uint256",
          "name": "endDate",
          "type": "uint256"
        },
        {
          "internalType": "string",
          "name": "offerStatus",
          "type": "string"
        },
        {
          "internalType": "uint256",
          "name": "maxOfferCount",
          "type": "uint256"
        },
        {
          "internalType": "string",
          "name": "couponCode",
          "type": "string"
        },
        {
          "internalType": "uint256",
          "name": "maxBenefitAmount",
          "type": "uint256"
        },
        {
          "internalType": "uint256",
          "name": "minOrderValue",
          "type": "uint256"
        },
        {
          "internalType": "uint256",
          "name": "minQtyValue",
          "type": "uint256"
        }
      ],
      "stateMutability": "view",
      "type": "function"
    },
    {
      "inputs": [
        {
          "components": [
            {
              "internalType": "address",
              "name": "proposerAddress",
              "type": "address"
            },
            {
              "internalType": "string",
              "name": "offerName",
              "type": "string"
            },
            {
              "internalType": "string",
              "name": "offerId",
              "type": "string"
            },
            {
              "internalType": "string[]",
              "name": "instruments",
              "type": "string[]"
            },
            {
              "internalType": "string[]",
              "name": "features",
              "type": "string[]"
            },
            {
              "internalType": "string[]",
              "name": "termsnconditions",
              "type": "string[]"
            },
            {
              "internalType": "string",
              "name": "offerType",
              "type": "string"
            },
            {
              "internalType": "uint256",
              "name": "startDate",
              "type": "uint256"
            },
            {
              "internalType": "uint256",
              "name": "endDate",
              "type": "uint256"
            },
            {
              "internalType": "string",
              "name": "offerStatus",
              "type": "string"
            },
            {
              "internalType": "uint256",
              "name": "maxOfferCount",
              "type": "uint256"
            },
            {
              "internalType": "string",
              "name": "couponCode",
              "type": "string"
            },
            {
              "internalType": "uint256",
              "name": "maxBenefitAmount",
              "type": "uint256"
            },
            {
              "internalType": "uint256[][]",
              "name": "subventionScheme",
              "type": "uint256[][]"
            },
            {
              "internalType": "string[]",
              "name": "sku",
              "type": "string[]"
            },
            {
              "internalType": "uint256",
              "name": "minOrderValue",
              "type": "uint256"
            },
            {
              "internalType": "uint256",
              "name": "minQtyValue",
              "type": "uint256"
            },
            {
              "internalType": "address[]",
              "name": "acceptedBy",
              "type": "address[]"
            }
          ],
          "internalType": "struct Common.Offer",
          "name": "_offer",
          "type": "tuple"
        }
      ],
      "name": "offerProposal",
      "outputs": [],
      "stateMutability": "nonpayable",
      "type": "function"
    },
    {
      "inputs": [
        {
          "internalType": "address",
          "name": "_memberAddress",
          "type": "address"
        }
      ],
      "name": "getOffersByMember",
      "outputs": [
        {
          "components": [
            {
              "internalType": "address",
              "name": "proposerAddress",
              "type": "address"
            },
            {
              "internalType": "string",
              "name": "offerName",
              "type": "string"
            },
            {
              "internalType": "string",
              "name": "offerId",
              "type": "string"
            },
            {
              "internalType": "string[]",
              "name": "instruments",
              "type": "string[]"
            },
            {
              "internalType": "string[]",
              "name": "features",
              "type": "string[]"
            },
            {
              "internalType": "string[]",
              "name": "termsnconditions",
              "type": "string[]"
            },
            {
              "internalType": "string",
              "name": "offerType",
              "type": "string"
            },
            {
              "internalType": "uint256",
              "name": "startDate",
              "type": "uint256"
            },
            {
              "internalType": "uint256",
              "name": "endDate",
              "type": "uint256"
            },
            {
              "internalType": "string",
              "name": "offerStatus",
              "type": "string"
            },
            {
              "internalType": "uint256",
              "name": "maxOfferCount",
              "type": "uint256"
            },
            {
              "internalType": "string",
              "name": "couponCode",
              "type": "string"
            },
            {
              "internalType": "uint256",
              "name": "maxBenefitAmount",
              "type": "uint256"
            },
            {
              "internalType": "uint256[][]",
              "name": "subventionScheme",
              "type": "uint256[][]"
            },
            {
              "internalType": "string[]",
              "name": "sku",
              "type": "string[]"
            },
            {
              "internalType": "uint256",
              "name": "minOrderValue",
              "type": "uint256"
            },
            {
              "internalType": "uint256",
              "name": "minQtyValue",
              "type": "uint256"
            },
            {
              "internalType": "address[]",
              "name": "acceptedBy",
              "type": "address[]"
            }
          ],
          "internalType": "struct Common.Offer[]",
          "name": "",
          "type": "tuple[]"
        }
      ],
      "stateMutability": "nonpayable",
      "type": "function"
    },
    {
      "inputs": [
        {
          "internalType": "address",
          "name": "_memberAddress",
          "type": "address"
        },
        {
          "internalType": "string",
          "name": "_offerId",
          "type": "string"
        }
      ],
      "name": "getOfferByMemberAndOfferId",
      "outputs": [
        {
          "components": [
            {
              "internalType": "address",
              "name": "proposerAddress",
              "type": "address"
            },
            {
              "internalType": "string",
              "name": "offerName",
              "type": "string"
            },
            {
              "internalType": "string",
              "name": "offerId",
              "type": "string"
            },
            {
              "internalType": "string[]",
              "name": "instruments",
              "type": "string[]"
            },
            {
              "internalType": "string[]",
              "name": "features",
              "type": "string[]"
            },
            {
              "internalType": "string[]",
              "name": "termsnconditions",
              "type": "string[]"
            },
            {
              "internalType": "string",
              "name": "offerType",
              "type": "string"
            },
            {
              "internalType": "uint256",
              "name": "startDate",
              "type": "uint256"
            },
            {
              "internalType": "uint256",
              "name": "endDate",
              "type": "uint256"
            },
            {
              "internalType": "string",
              "name": "offerStatus",
              "type": "string"
            },
            {
              "internalType": "uint256",
              "name": "maxOfferCount",
              "type": "uint256"
            },
            {
              "internalType": "string",
              "name": "couponCode",
              "type": "string"
            },
            {
              "internalType": "uint256",
              "name": "maxBenefitAmount",
              "type": "uint256"
            },
            {
              "internalType": "uint256[][]",
              "name": "subventionScheme",
              "type": "uint256[][]"
            },
            {
              "internalType": "string[]",
              "name": "sku",
              "type": "string[]"
            },
            {
              "internalType": "uint256",
              "name": "minOrderValue",
              "type": "uint256"
            },
            {
              "internalType": "uint256",
              "name": "minQtyValue",
              "type": "uint256"
            },
            {
              "internalType": "address[]",
              "name": "acceptedBy",
              "type": "address[]"
            }
          ],
          "internalType": "struct Common.Offer",
          "name": "",
          "type": "tuple"
        }
      ],
      "stateMutability": "nonpayable",
      "type": "function"
    },
    {
      "inputs": [
        {
          "internalType": "address",
          "name": "_offerBy",
          "type": "address"
        },
        {
          "internalType": "string",
          "name": "_offerId",
          "type": "string"
        }
      ],
      "name": "acceptOffer",
      "outputs": [
        {
          "internalType": "bool",
          "name": "",
          "type": "bool"
        }
      ],
      "stateMutability": "nonpayable",
      "type": "function"
    }
  ],
  "bytecode": "0x60806040523480156200001157600080fd5b5060405162003d4138038062003d41833981810160405281019062000037919062000129565b336000806101000a81548173ffffffffffffffffffffffffffffffffffffffff021916908373ffffffffffffffffffffffffffffffffffffffff16021790555080600160006101000a81548173ffffffffffffffffffffffffffffffffffffffff021916908373ffffffffffffffffffffffffffffffffffffffff160217905550506200015b565b600080fd5b600073ffffffffffffffffffffffffffffffffffffffff82169050919050565b6000620000f182620000c4565b9050919050565b6200010381620000e4565b81146200010f57600080fd5b50565b6000815190506200012381620000f8565b92915050565b600060208284031215620001425762000141620000bf565b5b6000620001528482850162000112565b91505092915050565b613bd6806200016b6000396000f3fe608060405234801561001057600080fd5b50600436106100575760003560e01c8063327f3a0f1461005c57806367c0d4b2146100785780636bf1ad71146100a8578063f43e9c13146100d8578063fa2aa85c14610108575b600080fd5b61007660048036038101906100719190612422565b610143565b005b610092600480360381019061008d919061246b565b610570565b60405161009f9190612aa1565b60405180910390f35b6100c260048036038101906100bd9190612ac3565b610e0c565b6040516100cf9190612ce7565b60405180910390f35b6100f260048036038101906100ed9190612ac3565b610ebc565b6040516100ff9190612d24565b60405180910390f35b610122600480360381019061011d9190612d3f565b611122565b60405161013a9c9b9a99989796959493929190612de7565b60405180910390f35b806101a0015160018151811061015c5761015b612ec4565b5b602002602001015151816101a0015160008151811061017e5761017d612ec4565b5b6020026020010151511461019157600080fd5b600260003373ffffffffffffffffffffffffffffffffffffffff1673ffffffffffffffffffffffffffffffffffffffff16815260200190815260200160002081908060018154018082558091505060019003906000526020600020906012020160009091909190915060008201518160000160006101000a81548173ffffffffffffffffffffffffffffffffffffffff021916908373ffffffffffffffffffffffffffffffffffffffff160217905550602082015181600101908161025691906130ff565b50604082015181600201908161026c91906130ff565b5060608201518160030190805190602001906102899291906118f2565b5060808201518160040190805190602001906102a69291906118f2565b5060a08201518160050190805190602001906102c39291906118f2565b5060c08201518160060190816102d991906130ff565b5060e08201518160070155610100820151816008015561012082015181600901908161030591906130ff565b5061014082015181600a015561016082015181600b01908161032791906130ff565b5061018082015181600c01556101a082015181600d01908051906020019061035092919061194b565b506101c082015181600e01908051906020019061036e9291906118f2565b506101e082015181600f015561020082015181601001556102208201518160110190805190602001906103a29291906119ab565b5050506000816101a001516000815181106103c0576103bf612ec4565b5b602002602001015151905060008167ffffffffffffffff8111156103e7576103e6611c2d565b5b60405190808252806020026020018201604052801561042057816020015b61040d611a35565b8152602001906001900390816104055790505b50905060005b836101a0015160008151811061043f5761043e612ec4565b5b60200260200101515181101561053157610457611a35565b6000856101a0015160008151811061047257610471612ec4565b5b6020026020010151838151811061048c5761048b612ec4565b5b6020026020010151600c8111156104a6576104a56131d1565b5b90506104b181611467565b8260000181905250856101a001516001815181106104d2576104d1612ec4565b5b602002602001015183815181106104ec576104eb612ec4565b5b60200260200101518260200181815250508184848151811061051157610510612ec4565b5b6020026020010181905250505080806105299061322f565b915050610426565b507fcb106d4795f668b3eda56e94b964ddcbd19fa41b4172d87e8fa824bc22e39c1883826040516105639291906133c2565b60405180910390a1505050565b6060600260008373ffffffffffffffffffffffffffffffffffffffff1673ffffffffffffffffffffffffffffffffffffffff168152602001908152602001600020805480602002602001604051908101604052809291908181526020016000905b82821015610e015783829060005260206000209060120201604051806102400160405290816000820160009054906101000a900473ffffffffffffffffffffffffffffffffffffffff1673ffffffffffffffffffffffffffffffffffffffff1673ffffffffffffffffffffffffffffffffffffffff16815260200160018201805461065b90612f22565b80601f016020809104026020016040519081016040528092919081815260200182805461068790612f22565b80156106d45780601f106106a9576101008083540402835291602001916106d4565b820191906000526020600020905b8154815290600101906020018083116106b757829003601f168201915b505050505081526020016002820180546106ed90612f22565b80601f016020809104026020016040519081016040528092919081815260200182805461071990612f22565b80156107665780601f1061073b57610100808354040283529160200191610766565b820191906000526020600020905b81548152906001019060200180831161074957829003601f168201915b5050505050815260200160038201805480602002602001604051908101604052809291908181526020016000905b828210156108405783829060005260206000200180546107b390612f22565b80601f01602080910402602001604051908101604052809291908181526020018280546107df90612f22565b801561082c5780601f106108015761010080835404028352916020019161082c565b820191906000526020600020905b81548152906001019060200180831161080f57829003601f168201915b505050505081526020019060010190610794565b50505050815260200160048201805480602002602001604051908101604052809291908181526020016000905b8282101561091957838290600052602060002001805461088c90612f22565b80601f01602080910402602001604051908101604052809291908181526020018280546108b890612f22565b80156109055780601f106108da57610100808354040283529160200191610905565b820191906000526020600020905b8154815290600101906020018083116108e857829003601f168201915b50505050508152602001906001019061086d565b50505050815260200160058201805480602002602001604051908101604052809291908181526020016000905b828210156109f257838290600052602060002001805461096590612f22565b80601f016020809104026020016040519081016040528092919081815260200182805461099190612f22565b80156109de5780601f106109b3576101008083540402835291602001916109de565b820191906000526020600020905b8154815290600101906020018083116109c157829003601f168201915b505050505081526020019060010190610946565b505050508152602001600682018054610a0a90612f22565b80601f0160208091040260200160405190810160405280929190818152602001828054610a3690612f22565b8015610a835780601f10610a5857610100808354040283529160200191610a83565b820191906000526020600020905b815481529060010190602001808311610a6657829003601f168201915b505050505081526020016007820154815260200160088201548152602001600982018054610ab090612f22565b80601f0160208091040260200160405190810160405280929190818152602001828054610adc90612f22565b8015610b295780601f10610afe57610100808354040283529160200191610b29565b820191906000526020600020905b815481529060010190602001808311610b0c57829003601f168201915b50505050508152602001600a8201548152602001600b82018054610b4c90612f22565b80601f0160208091040260200160405190810160405280929190818152602001828054610b7890612f22565b8015610bc55780601f10610b9a57610100808354040283529160200191610bc5565b820191906000526020600020905b815481529060010190602001808311610ba857829003601f168201915b50505050508152602001600c8201548152602001600d8201805480602002602001604051908101604052809291908181526020016000905b82821015610c6f57838290600052602060002001805480602002602001604051908101604052809291908181526020018280548015610c5b57602002820191906000526020600020905b815481526020019060010190808311610c47575b505050505081526020019060010190610bfd565b505050508152602001600e8201805480602002602001604051908101604052809291908181526020016000905b82821015610d48578382906000526020600020018054610cbb90612f22565b80601f0160208091040260200160405190810160405280929190818152602001828054610ce790612f22565b8015610d345780601f10610d0957610100808354040283529160200191610d34565b820191906000526020600020905b815481529060010190602001808311610d1757829003601f168201915b505050505081526020019060010190610c9c565b505050508152602001600f82015481526020016010820154815260200160118201805480602002602001604051908101604052809291908181526020018280548015610de957602002820191906000526020600020905b8160009054906101000a900473ffffffffffffffffffffffffffffffffffffffff1673ffffffffffffffffffffffffffffffffffffffff1681526020019060010190808311610d9f575b505050505081525050815260200190600101906105d1565b505050509050919050565b610e14611a4f565b6000610e1f84610570565b9050610e29611a4f565b60008251811015610eb0576000838281518110610e4957610e48612ec4565b5b6020026020010151905085604051602001610e649190613448565b604051602081830303815290604052805190602001208160400151604051602001610e8f9190613448565b6040516020818303038152906040528051906020012003610eae578092505b505b50809250505092915050565b600080600090506000600260008673ffffffffffffffffffffffffffffffffffffffff1673ffffffffffffffffffffffffffffffffffffffff168152602001908152602001600020905060008180549050811015611112576000828281548110610f2957610f28612ec4565b5b9060005260206000209060120201905085604051602001610f4a9190613448565b6040516020818303038152906040528051906020012081600201604051602001610f7491906134e2565b6040516020818303038152906040528051906020012003611110576000805b8260110180549050811015611064573373ffffffffffffffffffffffffffffffffffffffff16836011018281548110610fcf57610fce612ec4565b5b9060005260206000200160009054906101000a900473ffffffffffffffffffffffffffffffffffffffff1673ffffffffffffffffffffffffffffffffffffffff160361105157600191507f57fcbeb0415eed13309380ad2cac2c5d7c9876ccbe2a992504b09d5f479aa626836040516110489190613aea565b60405180910390a15b808061105c9061322f565b915050610f93565b50600015158115150361110e5781601101339080600181540180825580915050600190039060005260206000200160009091909190916101000a81548173ffffffffffffffffffffffffffffffffffffffff021916908373ffffffffffffffffffffffffffffffffffffffff1602179055507f57fcbeb0415eed13309380ad2cac2c5d7c9876ccbe2a992504b09d5f479aa626826040516111059190613b6b565b60405180910390a15b505b505b5060019150819250505092915050565b6002602052816000526040600020818154811061113e57600080fd5b9060005260206000209060120201600091509150508060000160009054906101000a900473ffffffffffffffffffffffffffffffffffffffff169080600101805461118890612f22565b80601f01602080910402602001604051908101604052809291908181526020018280546111b490612f22565b80156112015780601f106111d657610100808354040283529160200191611201565b820191906000526020600020905b8154815290600101906020018083116111e457829003601f168201915b50505050509080600201805461121690612f22565b80601f016020809104026020016040519081016040528092919081815260200182805461124290612f22565b801561128f5780601f106112645761010080835404028352916020019161128f565b820191906000526020600020905b81548152906001019060200180831161127257829003601f168201915b5050505050908060060180546112a490612f22565b80601f01602080910402602001604051908101604052809291908181526020018280546112d090612f22565b801561131d5780601f106112f25761010080835404028352916020019161131d565b820191906000526020600020905b81548152906001019060200180831161130057829003601f168201915b50505050509080600701549080600801549080600901805461133e90612f22565b80601f016020809104026020016040519081016040528092919081815260200182805461136a90612f22565b80156113b75780601f1061138c576101008083540402835291602001916113b7565b820191906000526020600020905b81548152906001019060200180831161139a57829003601f168201915b50505050509080600a01549080600b0180546113d290612f22565b80601f01602080910402602001604051908101604052809291908181526020018280546113fe90612f22565b801561144b5780601f106114205761010080835404028352916020019161144b565b820191906000526020600020905b81548152906001019060200180831161142e57829003601f168201915b50505050509080600c01549080600f015490806010015490508c565b606081600c81111561147c5761147b6131d1565b5b6000600c8111156114905761148f6131d1565b5b036114d2576040518060400160405280600781526020017f4e6574776f726b0000000000000000000000000000000000000000000000000081525090506118ed565b81600c8111156114e5576114e46131d1565b5b6001600c8111156114f9576114f86131d1565b5b0361153b576040518060400160405280600881526020017f4d65726368616e7400000000000000000000000000000000000000000000000081525090506118ed565b81600c81111561154e5761154d6131d1565b5b6002600c811115611562576115616131d1565b5b036115a4576040518060400160405280600881526020017f416371756972657200000000000000000000000000000000000000000000000081525090506118ed565b81600c8111156115b7576115b66131d1565b5b6003600c8111156115cb576115ca6131d1565b5b0361160d576040518060400160405280601281526020017f437265646974204361726420497373756572000000000000000000000000000081525090506118ed565b81600c8111156116205761161f6131d1565b5b6004600c811115611634576116336131d1565b5b03611676576040518060400160405280601181526020017f446562697420436172642049737375657200000000000000000000000000000081525090506118ed565b81600c811115611689576116886131d1565b5b6005600c81111561169d5761169c6131d1565b5b036116df576040518060400160405280600a81526020017f555049204973737565720000000000000000000000000000000000000000000081525090506118ed565b81600c8111156116f2576116f16131d1565b5b6006600c811115611706576117056131d1565b5b03611748576040518060400160405280601881526020017f5061796d656e7420536572766963652050726f7669646572000000000000000081525090506118ed565b81600c81111561175b5761175a6131d1565b5b6007600c81111561176f5761176e6131d1565b5b036117b1576040518060400160405280600c81526020017f4d616e756661637475726572000000000000000000000000000000000000000081525090506118ed565b81600c8111156117c4576117c36131d1565b5b6008600c8111156117d8576117d76131d1565b5b0361181a576040518060400160405280600f81526020017f5061796d656e742047617465776179000000000000000000000000000000000081525090506118ed565b81600c81111561182d5761182c6131d1565b5b6009600c811115611841576118406131d1565b5b03611883576040518060400160405280600a81526020017f41676772656761746f720000000000000000000000000000000000000000000081525090506118ed565b81600c811115611896576118956131d1565b5b600a600c8111156118aa576118a96131d1565b5b036118ec576040518060400160405280601081526020017f4f666665722041676772656761746f720000000000000000000000000000000081525090506118ed565b5b919050565b82805482825590600052602060002090810192821561193a579160200282015b8281111561193957825182908161192991906130ff565b5091602001919060010190611912565b5b5090506119479190611af0565b5090565b82805482825590600052602060002090810192821561199a579160200282015b82811115611999578251829080519060200190611989929190611b14565b509160200191906001019061196b565b5b5090506119a79190611b61565b5090565b828054828255906000526020600020908101928215611a24579160200282015b82811115611a235782518260006101000a81548173ffffffffffffffffffffffffffffffffffffffff021916908373ffffffffffffffffffffffffffffffffffffffff160217905550916020019190600101906119cb565b5b509050611a319190611b85565b5090565b604051806040016040528060608152602001600081525090565b604051806102400160405280600073ffffffffffffffffffffffffffffffffffffffff16815260200160608152602001606081526020016060815260200160608152602001606081526020016060815260200160008152602001600081526020016060815260200160008152602001606081526020016000815260200160608152602001606081526020016000815260200160008152602001606081525090565b5b80821115611b105760008181611b079190611ba2565b50600101611af1565b5090565b828054828255906000526020600020908101928215611b50579160200282015b82811115611b4f578251825591602001919060010190611b34565b5b509050611b5d9190611b85565b5090565b5b80821115611b815760008181611b789190611be2565b50600101611b62565b5090565b5b80821115611b9e576000816000905550600101611b86565b5090565b508054611bae90612f22565b6000825580601f10611bc05750611bdf565b601f016020900490600052602060002090810190611bde9190611b85565b5b50565b5080546000825590600052602060002090810190611c009190611b85565b50565b6000604051905090565b600080fd5b600080fd5b600080fd5b6000601f19601f8301169050919050565b7f4e487b7100000000000000000000000000000000000000000000000000000000600052604160045260246000fd5b611c6582611c1c565b810181811067ffffffffffffffff82111715611c8457611c83611c2d565b5b80604052505050565b6000611c97611c03565b9050611ca38282611c5c565b919050565b600080fd5b600073ffffffffffffffffffffffffffffffffffffffff82169050919050565b6000611cd882611cad565b9050919050565b611ce881611ccd565b8114611cf357600080fd5b50565b600081359050611d0581611cdf565b92915050565b600080fd5b600080fd5b600067ffffffffffffffff821115611d3057611d2f611c2d565b5b611d3982611c1c565b9050602081019050919050565b82818337600083830152505050565b6000611d68611d6384611d15565b611c8d565b905082815260208101848484011115611d8457611d83611d10565b5b611d8f848285611d46565b509392505050565b600082601f830112611dac57611dab611d0b565b5b8135611dbc848260208601611d55565b91505092915050565b600067ffffffffffffffff821115611de057611ddf611c2d565b5b602082029050602081019050919050565b600080fd5b6000611e09611e0484611dc5565b611c8d565b90508083825260208201905060208402830185811115611e2c57611e2b611df1565b5b835b81811015611e7357803567ffffffffffffffff811115611e5157611e50611d0b565b5b808601611e5e8982611d97565b85526020850194505050602081019050611e2e565b5050509392505050565b600082601f830112611e9257611e91611d0b565b5b8135611ea2848260208601611df6565b91505092915050565b6000819050919050565b611ebe81611eab565b8114611ec957600080fd5b50565b600081359050611edb81611eb5565b92915050565b600067ffffffffffffffff821115611efc57611efb611c2d565b5b602082029050602081019050919050565b600067ffffffffffffffff821115611f2857611f27611c2d565b5b602082029050602081019050919050565b6000611f4c611f4784611f0d565b611c8d565b90508083825260208201905060208402830185811115611f6f57611f6e611df1565b5b835b81811015611f985780611f848882611ecc565b845260208401935050602081019050611f71565b5050509392505050565b600082601f830112611fb757611fb6611d0b565b5b8135611fc7848260208601611f39565b91505092915050565b6000611fe3611fde84611ee1565b611c8d565b9050808382526020820190506020840283018581111561200657612005611df1565b5b835b8181101561204d57803567ffffffffffffffff81111561202b5761202a611d0b565b5b8086016120388982611fa2565b85526020850194505050602081019050612008565b5050509392505050565b600082601f83011261206c5761206b611d0b565b5b813561207c848260208601611fd0565b91505092915050565b600067ffffffffffffffff8211156120a05761209f611c2d565b5b602082029050602081019050919050565b60006120c46120bf84612085565b611c8d565b905080838252602082019050602084028301858111156120e7576120e6611df1565b5b835b8181101561211057806120fc8882611cf6565b8452602084019350506020810190506120e9565b5050509392505050565b600082601f83011261212f5761212e611d0b565b5b813561213f8482602086016120b1565b91505092915050565b6000610240828403121561215f5761215e611c17565b5b61216a610240611c8d565b9050600061217a84828501611cf6565b600083015250602082013567ffffffffffffffff81111561219e5761219d611ca8565b5b6121aa84828501611d97565b602083015250604082013567ffffffffffffffff8111156121ce576121cd611ca8565b5b6121da84828501611d97565b604083015250606082013567ffffffffffffffff8111156121fe576121fd611ca8565b5b61220a84828501611e7d565b606083015250608082013567ffffffffffffffff81111561222e5761222d611ca8565b5b61223a84828501611e7d565b60808301525060a082013567ffffffffffffffff81111561225e5761225d611ca8565b5b61226a84828501611e7d565b60a08301525060c082013567ffffffffffffffff81111561228e5761228d611ca8565b5b61229a84828501611d97565b60c08301525060e06122ae84828501611ecc565b60e0830152506101006122c384828501611ecc565b6101008301525061012082013567ffffffffffffffff8111156122e9576122e8611ca8565b5b6122f584828501611d97565b6101208301525061014061230b84828501611ecc565b6101408301525061016082013567ffffffffffffffff81111561233157612330611ca8565b5b61233d84828501611d97565b6101608301525061018061235384828501611ecc565b610180830152506101a082013567ffffffffffffffff81111561237957612378611ca8565b5b61238584828501612057565b6101a0830152506101c082013567ffffffffffffffff8111156123ab576123aa611ca8565b5b6123b784828501611e7d565b6101c0830152506101e06123cd84828501611ecc565b6101e0830152506102006123e384828501611ecc565b6102008301525061022082013567ffffffffffffffff81111561240957612408611ca8565b5b6124158482850161211a565b6102208301525092915050565b60006020828403121561243857612437611c0d565b5b600082013567ffffffffffffffff81111561245657612455611c12565b5b61246284828501612148565b91505092915050565b60006020828403121561248157612480611c0d565b5b600061248f84828501611cf6565b91505092915050565b600081519050919050565b600082825260208201905092915050565b6000819050602082019050919050565b6124cd81611ccd565b82525050565b600081519050919050565b600082825260208201905092915050565b60005b8381101561250d5780820151818401526020810190506124f2565b60008484015250505050565b6000612524826124d3565b61252e81856124de565b935061253e8185602086016124ef565b61254781611c1c565b840191505092915050565b600081519050919050565b600082825260208201905092915050565b6000819050602082019050919050565b600061258a8383612519565b905092915050565b6000602082019050919050565b60006125aa82612552565b6125b4818561255d565b9350836020820285016125c68561256e565b8060005b8581101561260257848403895281516125e3858261257e565b94506125ee83612592565b925060208a019950506001810190506125ca565b50829750879550505050505092915050565b61261d81611eab565b82525050565b600081519050919050565b600082825260208201905092915050565b6000819050602082019050919050565b600081519050919050565b600082825260208201905092915050565b6000819050602082019050919050565b60006126878383612614565b60208301905092915050565b6000602082019050919050565b60006126ab8261264f565b6126b5818561265a565b93506126c08361266b565b8060005b838110156126f15781516126d8888261267b565b97506126e383612693565b9250506001810190506126c4565b5085935050505092915050565b600061270a83836126a0565b905092915050565b6000602082019050919050565b600061272a82612623565b612734818561262e565b9350836020820285016127468561263f565b8060005b85811015612782578484038952815161276385826126fe565b945061276e83612712565b925060208a0199505060018101905061274a565b50829750879550505050505092915050565b600081519050919050565b600082825260208201905092915050565b6000819050602082019050919050565b60006127cc83836124c4565b60208301905092915050565b6000602082019050919050565b60006127f082612794565b6127fa818561279f565b9350612805836127b0565b8060005b8381101561283657815161281d88826127c0565b9750612828836127d8565b925050600181019050612809565b5085935050505092915050565b60006102408301600083015161285c60008601826124c4565b50602083015184820360208601526128748282612519565b9150506040830151848203604086015261288e8282612519565b915050606083015184820360608601526128a8828261259f565b915050608083015184820360808601526128c2828261259f565b91505060a083015184820360a08601526128dc828261259f565b91505060c083015184820360c08601526128f68282612519565b91505060e083015161290b60e0860182612614565b50610100830151612920610100860182612614565b5061012083015184820361012086015261293a8282612519565b915050610140830151612951610140860182612614565b5061016083015184820361016086015261296b8282612519565b915050610180830151612982610180860182612614565b506101a08301518482036101a086015261299c828261271f565b9150506101c08301518482036101c08601526129b8828261259f565b9150506101e08301516129cf6101e0860182612614565b506102008301516129e4610200860182612614565b506102208301518482036102208601526129fe82826127e5565b9150508091505092915050565b6000612a178383612843565b905092915050565b6000602082019050919050565b6000612a3782612498565b612a4181856124a3565b935083602082028501612a53856124b4565b8060005b85811015612a8f5784840389528151612a708582612a0b565b9450612a7b83612a1f565b925060208a01995050600181019050612a57565b50829750879550505050505092915050565b60006020820190508181036000830152612abb8184612a2c565b905092915050565b60008060408385031215612ada57612ad9611c0d565b5b6000612ae885828601611cf6565b925050602083013567ffffffffffffffff811115612b0957612b08611c12565b5b612b1585828601611d97565b9150509250929050565b600061024083016000830151612b3860008601826124c4565b5060208301518482036020860152612b508282612519565b91505060408301518482036040860152612b6a8282612519565b91505060608301518482036060860152612b84828261259f565b91505060808301518482036080860152612b9e828261259f565b91505060a083015184820360a0860152612bb8828261259f565b91505060c083015184820360c0860152612bd28282612519565b91505060e0830151612be760e0860182612614565b50610100830151612bfc610100860182612614565b50610120830151848203610120860152612c168282612519565b915050610140830151612c2d610140860182612614565b50610160830151848203610160860152612c478282612519565b915050610180830151612c5e610180860182612614565b506101a08301518482036101a0860152612c78828261271f565b9150506101c08301518482036101c0860152612c94828261259f565b9150506101e0830151612cab6101e0860182612614565b50610200830151612cc0610200860182612614565b50610220830151848203610220860152612cda82826127e5565b9150508091505092915050565b60006020820190508181036000830152612d018184612b1f565b905092915050565b60008115159050919050565b612d1e81612d09565b82525050565b6000602082019050612d396000830184612d15565b92915050565b60008060408385031215612d5657612d55611c0d565b5b6000612d6485828601611cf6565b9250506020612d7585828601611ecc565b9150509250929050565b612d8881611ccd565b82525050565b600082825260208201905092915050565b6000612daa826124d3565b612db48185612d8e565b9350612dc48185602086016124ef565b612dcd81611c1c565b840191505092915050565b612de181611eab565b82525050565b600061018082019050612dfd600083018f612d7f565b8181036020830152612e0f818e612d9f565b90508181036040830152612e23818d612d9f565b90508181036060830152612e37818c612d9f565b9050612e46608083018b612dd8565b612e5360a083018a612dd8565b81810360c0830152612e658189612d9f565b9050612e7460e0830188612dd8565b818103610100830152612e878187612d9f565b9050612e97610120830186612dd8565b612ea5610140830185612dd8565b612eb3610160830184612dd8565b9d9c50505050505050505050505050565b7f4e487b7100000000000000000000000000000000000000000000000000000000600052603260045260246000fd5b7f4e487b7100000000000000000000000000000000000000000000000000000000600052602260045260246000fd5b60006002820490506001821680612f3a57607f821691505b602082108103612f4d57612f4c612ef3565b5b50919050565b60008190508160005260206000209050919050565b60006020601f8301049050919050565b600082821b905092915050565b600060088302612fb57fffffffffffffffffffffffffffffffffffffffffffffffffffffffffffffffff82612f78565b612fbf8683612f78565b95508019841693508086168417925050509392505050565b6000819050919050565b6000612ffc612ff7612ff284611eab565b612fd7565b611eab565b9050919050565b6000819050919050565b61301683612fe1565b61302a61302282613003565b848454612f85565b825550505050565b600090565b61303f613032565b61304a81848461300d565b505050565b5b8181101561306e57613063600082613037565b600181019050613050565b5050565b601f8211156130b35761308481612f53565b61308d84612f68565b8101602085101561309c578190505b6130b06130a885612f68565b83018261304f565b50505b505050565b600082821c905092915050565b60006130d6600019846008026130b8565b1980831691505092915050565b60006130ef83836130c5565b9150826002028217905092915050565b613108826124d3565b67ffffffffffffffff81111561312157613120611c2d565b5b61312b8254612f22565b613136828285613072565b600060209050601f8311600181146131695760008415613157578287015190505b61316185826130e3565b8655506131c9565b601f19841661317786612f53565b60005b8281101561319f5784890151825560018201915060208501945060208101905061317a565b868310156131bc57848901516131b8601f8916826130c5565b8355505b6001600288020188555050505b505050505050565b7f4e487b7100000000000000000000000000000000000000000000000000000000600052602160045260246000fd5b7f4e487b7100000000000000000000000000000000000000000000000000000000600052601160045260246000fd5b600061323a82611eab565b91507fffffffffffffffffffffffffffffffffffffffffffffffffffffffffffffffff820361326c5761326b613200565b5b600182019050919050565b7f4f6666657250726f706f73616c00000000000000000000000000000000000000600082015250565b60006132ad600d83612d8e565b91506132b882613277565b602082019050919050565b600081519050919050565b600082825260208201905092915050565b6000819050602082019050919050565b6000604083016000830151848203600086015261330c8282612519565b91505060208301516133216020860182612614565b508091505092915050565b600061333883836132ef565b905092915050565b6000602082019050919050565b6000613358826132c3565b61336281856132ce565b935083602082028501613374856132df565b8060005b858110156133b05784840389528151613391858261332c565b945061339c83613340565b925060208a01995050600181019050613378565b50829750879550505050505092915050565b600060608201905081810360008301526133db816132a0565b905081810360208301526133ef8185612b1f565b90508181036040830152613403818461334d565b90509392505050565b600081905092915050565b6000613422826124d3565b61342c818561340c565b935061343c8185602086016124ef565b80840191505092915050565b60006134548284613417565b915081905092915050565b6000815461346c81612f22565b613476818661340c565b9450600182166000811461349157600181146134a6576134d9565b60ff19831686528115158202860193506134d9565b6134af85612f53565b60005b838110156134d1578154818901526001820191506020810190506134b2565b838801955050505b50505092915050565b60006134ee828461345f565b915081905092915050565b7f52652d617474656d7074204f66666572416363657074616e6365000000000000600082015250565b600061352f601a83612d8e565b915061353a826134f9565b602082019050919050565b60008160001c9050919050565b600073ffffffffffffffffffffffffffffffffffffffff82169050919050565b600061358561358083613545565b613552565b9050919050565b6000815461359981612f22565b6135a381866124de565b945060018216600081146135be57600181146135d457613607565b60ff198316865281151560200286019350613607565b6135dd85612f53565b60005b838110156135ff578154818901526001820191506020810190506135e0565b808801955050505b50505092915050565b600081549050919050565b60008190508160005260206000209050919050565b600061363c838361358c565b905092915050565b6000600182019050919050565b600061365c82613610565b613666818561255d565b9350836020820285016136788561361b565b8060005b858110156136b3578484038952816136948582613630565b945061369f83613644565b925060208a0199505060018101905061367c565b50829750879550505050505092915050565b6000819050919050565b60006136e26136dd83613545565b6136c5565b9050919050565b600081549050919050565b60008190508160005260206000209050919050565b600081549050919050565b60008190508160005260206000209050919050565b600061373582546136cf565b9050919050565b6000600182019050919050565b600061375482613709565b61375e818561265a565b935061376983613714565b8060005b838110156137a15761377e82613729565b613788888261267b565b97506137938361373c565b92505060018101905061376d565b5085935050505092915050565b60006137ba8383613749565b905092915050565b6000600182019050919050565b60006137da826136e9565b6137e4818561262e565b9350836020820285016137f6856136f4565b8060005b858110156138315784840389528161381285826137ae565b945061381d836137c2565b925060208a019950506001810190506137fa565b50829750879550505050505092915050565b600081549050919050565b60008190508160005260206000209050919050565b600061386f8254613572565b9050919050565b6000600182019050919050565b600061388e82613843565b613898818561279f565b93506138a38361384e565b8060005b838110156138db576138b882613863565b6138c288826127c0565b97506138cd83613876565b9250506001810190506138a7565b5085935050505092915050565b60006102408301600080840154905061390081613572565b61390d60008701826124c4565b50600184018583036020870152613924838261358c565b92505060028401858303604087015261393d838261358c565b9250506003840185830360608701526139568382613651565b92505060048401858303608087015261396f8382613651565b9250506005840185830360a08701526139888382613651565b9250506006840185830360c08701526139a1838261358c565b925050600784015490506139b4816136cf565b6139c160e0870182612614565b50600884015490506139d2816136cf565b6139e0610100870182612614565b50600984018583036101208701526139f8838261358c565b925050600a8401549050613a0b816136cf565b613a19610140870182612614565b50600b8401858303610160870152613a31838261358c565b925050600c8401549050613a44816136cf565b613a52610180870182612614565b50600d84018583036101a0870152613a6a83826137cf565b925050600e84018583036101c0870152613a848382613651565b925050600f8401549050613a97816136cf565b613aa56101e0870182612614565b5060108401549050613ab6816136cf565b613ac4610200870182612614565b5060118401858303610220870152613adc8382613883565b925050819250505092915050565b60006040820190508181036000830152613b0381613522565b90508181036020830152613b1781846138e8565b905092915050565b7f4f66666572416363657074616e63650000000000000000000000000000000000600082015250565b6000613b55600f83612d8e565b9150613b6082613b1f565b602082019050919050565b60006040820190508181036000830152613b8481613b48565b90508181036020830152613b9881846138e8565b90509291505056fea26469706673582212203ffe29c1c1d7956b71734e5855425ba24563d26db2f42993df355e0ec9138d0164736f6c63430008110033",
  "immutableReferences": {},
  "source": "// SPDX-License-Identifier: GPL-3.0\r\npragma solidity >=0.4.0 <0.9.0;\r\nimport '../common/Common.sol';\r\nimport '../onboarding/Members.sol';\r\n\r\n\r\n\r\ncontract Offers is Common {\r\n\r\n    address owner;    \r\n    Members members;\r\n    \r\n\r\n    mapping(address => Offer[]) public memberOffers; // memberAddress and offers proposed by members\r\n    address[] memberAddresses;   \r\n\r\n    event offerProposed(        \r\n        string message,\r\n        Offer offer,\r\n        SubventionShare[] subventionScheme\r\n        );\r\n\r\n    event offerAccepted(        \r\n        string message,        \r\n        Offer offer       \r\n        );\r\n\r\n      /*\r\n    Subvention share is share in the overall benefit value.\r\n     If 5% discount is offered, and the value of discount is 100, \r\n     and contributed by OEM, Intrument issuer like bank and merchant in the ratio of \r\n     60, 20, 20 then there will be three SubventionShare \r\n    */ \r\n    struct SubventionShare{       \r\n        string memberType;\r\n        uint percentShare;\r\n    }\r\n\r\n    //   modifier onlyMember() { // Modifier      \r\n    //     require(\r\n    //         members.members[msg.sender].memberAddress == msg.sender,\r\n    //         \"Only Members are allowed to perform the operation\"\r\n    //     );\r\n    //     _;\r\n    // }\r\n\r\n    constructor(address _memberContract) public {\r\n      owner = msg.sender;     \r\n      members = Members(_memberContract);\r\n   }\r\n\r\n    function offerProposal(Offer memory _offer) public {   \r\n        require (_offer.subventionScheme[0].length == _offer.subventionScheme[1].length);\r\n        memberOffers[msg.sender].push(_offer);\r\n        uint size = _offer.subventionScheme[0].length;\r\n        SubventionShare[] memory subvention = new SubventionShare[](size);\r\n        for (uint i = 0; i < _offer.subventionScheme[0].length; i++) {\r\n          SubventionShare memory s;\r\n          MemberType mtype = MemberType(_offer.subventionScheme[0][i]);\r\n          s.memberType = getMemberTypeByValue(mtype);\r\n          s.percentShare = _offer.subventionScheme[1][i];       \r\n          subvention[i] = s;  \r\n        }\r\n\r\n        emit offerProposed(\"OfferProposal\", _offer, subvention);\r\n    \r\n    }\r\n\r\n    function getOffersByMember(address _memberAddress ) public returns (Offer[] memory){\r\n        return memberOffers[_memberAddress];\r\n    }\r\n\r\n    function getOfferByMemberAndOfferId(address _memberAddress, string memory _offerId ) public returns (Offer memory){\r\n        Offer[] memory offers = getOffersByMember(_memberAddress);\r\n        Offer memory offer;\r\n        for (uint i = 0; i < offers.length; i++) {\r\n          Offer memory o = offers[i];  \r\n          if (keccak256(abi.encodePacked(o.offerId)) == keccak256(abi.encodePacked(_offerId))){\r\n            offer = o;\r\n          }\r\n          break;\r\n      }\r\n      return offer;\r\n    }\r\n\r\n    function acceptOffer(address _offerBy, string memory _offerId ) public returns (bool){\r\n        //require onlyMember();\r\n        bool success = false;\r\n        //Offer storage offer = getOfferByMemberAndOfferId(_offerBy, _offerId);\r\n        Offer[] storage offers = memberOffers[_offerBy];\r\n               \r\n        for (uint i = 0; i < offers.length; i++) {\r\n          Offer storage o = offers[i];  \r\n          \r\n          if (keccak256(abi.encodePacked(o.offerId)) == keccak256(abi.encodePacked(_offerId))){\r\n            bool exists = false;\r\n            for (uint i = 0; i < o.acceptedBy.length; i++) {\r\n                if (o.acceptedBy[i] == msg.sender){\r\n                    exists = true;\r\n                    emit offerAccepted(\"Re-attempt OfferAcceptance\", o);\r\n                }\r\n            }\r\n            if(exists == false){\r\n                o.acceptedBy.push(msg.sender);\r\n                emit offerAccepted(\"OfferAcceptance\", o);\r\n            }           \r\n          }          \r\n          break;\r\n        }       \r\n        //TODO - Acceptance can be a data strcture with more details around acceptance such as time stamp\r\n        //address[] storage acceptedAddresses = offer.acceptedBy;\r\n       \r\n        success = true;\r\n        return success;\r\n    }\r\n\r\n}",
  "sourcePath": "C:\\npci-hackathon\\truffle-project\\contracts\\offers\\Offers.sol",
  "compiler": {
    "name": "solc",
    "version": "0.8.17+commit.8df45f5f.Emscripten.clang"
  },
  "schemaVersion": "3.4.11",
  "updatedAt": "2023-01-05T14:44:57.290Z",
  "devdoc": {
    "kind": "dev",
    "methods": {},
    "version": 1
  },
  "userdoc": {
    "kind": "user",
    "methods": {},
    "version": 1
  }
}