{
  "contractName": "SubventionScheme",
  "abi": [
    {
      "inputs": [
        {
          "components": [
            {
              "internalType": "string",
              "name": "memberType",
              "type": "string"
            },
            {
              "internalType": "uint256",
              "name": "percentShare",
              "type": "uint256"
            }
          ],
          "internalType": "struct SubventionScheme.SubventionShare",
          "name": "_subventionShare",
          "type": "tuple"
        }
      ],
      "name": "addSubvention",
      "outputs": [
        {
          "internalType": "uint256",
          "name": "",
          "type": "uint256"
        }
      ],
      "stateMutability": "nonpayable",
      "type": "function"
    }
  ],
  "bytecode": "0x608060405234801561001057600080fd5b5061064c806100206000396000f3fe608060405234801561001057600080fd5b506004361061002b5760003560e01c80634c1ba29d14610030575b600080fd5b61004a600480360381019061004591906102ba565b610060565b6040516100579190610312565b60405180910390f35b60008082908060018154018082558091505060019003906000526020600020906002020160009091909190915060008201518160000190816100a29190610544565b50602082015181600101555050919050565b6000604051905090565b600080fd5b600080fd5b600080fd5b6000601f19601f8301169050919050565b7f4e487b7100000000000000000000000000000000000000000000000000000000600052604160045260246000fd5b610116826100cd565b810181811067ffffffffffffffff82111715610135576101346100de565b5b80604052505050565b60006101486100b4565b9050610154828261010d565b919050565b600080fd5b600080fd5b600080fd5b600067ffffffffffffffff821115610183576101826100de565b5b61018c826100cd565b9050602081019050919050565b82818337600083830152505050565b60006101bb6101b684610168565b61013e565b9050828152602081018484840111156101d7576101d6610163565b5b6101e2848285610199565b509392505050565b600082601f8301126101ff576101fe61015e565b5b813561020f8482602086016101a8565b91505092915050565b6000819050919050565b61022b81610218565b811461023657600080fd5b50565b60008135905061024881610222565b92915050565b600060408284031215610264576102636100c8565b5b61026e604061013e565b9050600082013567ffffffffffffffff81111561028e5761028d610159565b5b61029a848285016101ea565b60008301525060206102ae84828501610239565b60208301525092915050565b6000602082840312156102d0576102cf6100be565b5b600082013567ffffffffffffffff8111156102ee576102ed6100c3565b5b6102fa8482850161024e565b91505092915050565b61030c81610218565b82525050565b60006020820190506103276000830184610303565b92915050565b600081519050919050565b7f4e487b7100000000000000000000000000000000000000000000000000000000600052602260045260246000fd5b6000600282049050600182168061037f57607f821691505b60208210810361039257610391610338565b5b50919050565b60008190508160005260206000209050919050565b60006020601f8301049050919050565b600082821b905092915050565b6000600883026103fa7fffffffffffffffffffffffffffffffffffffffffffffffffffffffffffffffff826103bd565b61040486836103bd565b95508019841693508086168417925050509392505050565b6000819050919050565b600061044161043c61043784610218565b61041c565b610218565b9050919050565b6000819050919050565b61045b83610426565b61046f61046782610448565b8484546103ca565b825550505050565b600090565b610484610477565b61048f818484610452565b505050565b5b818110156104b3576104a860008261047c565b600181019050610495565b5050565b601f8211156104f8576104c981610398565b6104d2846103ad565b810160208510156104e1578190505b6104f56104ed856103ad565b830182610494565b50505b505050565b600082821c905092915050565b600061051b600019846008026104fd565b1980831691505092915050565b6000610534838361050a565b9150826002028217905092915050565b61054d8261032d565b67ffffffffffffffff811115610566576105656100de565b5b6105708254610367565b61057b8282856104b7565b600060209050601f8311600181146105ae576000841561059c578287015190505b6105a68582610528565b86555061060e565b601f1984166105bc86610398565b60005b828110156105e4578489015182556001820191506020850194506020810190506105bf565b8683101561060157848901516105fd601f89168261050a565b8355505b6001600288020188555050505b50505050505056fea26469706673582212207afaaf74e94e4fffcf7b29e596181eb2683add98424e85c31977c55dea8d513b64736f6c63430008110033",
  "immutableReferences": {},
  "source": "// SPDX-License-Identifier: GPL-3.0\r\npragma solidity >=0.4.0 <0.9.0;\r\n\r\n\r\n\r\n \r\ncontract SubventionScheme {\r\n\r\n     /*\r\n    Subvention share is share in the overall benefit value.\r\n     If 5% discount is offered, and the value of discount is 100, \r\n     and contributed by OEM, Intrument issuer like bank and merchant in the ratio of \r\n     60, 20, 20 then there will be three SubventionShare \r\n    */ \r\n    struct SubventionShare{       \r\n        string memberType;\r\n        uint percentShare;\r\n    }\r\n\r\n    \r\n    SubventionShare[] subventionScheme;\r\n    //mapping(address => SubventionShare[]) public subventionScheme;\r\n//     constructor(SubventionShare[] memory _subventionScheme) public {\r\n//       subventionScheme[msg.sender] = _subventionScheme;\r\n//    }\r\n\r\n    function addSubvention(SubventionShare memory _subventionShare) public returns(uint){\r\n\r\n        subventionScheme.push(_subventionShare);\r\n\r\n\r\n    }\r\n\r\n}",
  "sourcePath": "C:\\npci-hackathon\\truffle-project\\contracts\\offers\\SubventionScheme.sol",
  "compiler": {
    "name": "solc",
    "version": "0.8.17+commit.8df45f5f.Emscripten.clang"
  },
  "schemaVersion": "3.4.11",
  "updatedAt": "2023-01-03T15:25:03.011Z",
  "devdoc": {
    "kind": "dev",
    "methods": {},
    "version": 1
  },
  "userdoc": {
    "kind": "user",
    "methods": {},
    "version": 1
  }
}